:10080000E4F508F509FBFAF59075A0FF75B0FFC295
:1008100080C281C282C283AEA053060FAFB053071D
:100820000FE580640424FF9284E580640524FF9230
:1008300085E580640624FF9286308414208511208B
:10084000860ED280C281C282C283EE2FF59080C70D
:1008500020841F30851C208619C280D281C282C2AA
:1008600083EFD39E40057590FF80ACC3EE9FF5905B
:1008700080A5208416208513308610C280C281D2C4
:1008800082C283EE8FF0A4F590808C30848930850D
:1008900086208683C280C281C282D283EE8FF0849A
:1008A000F590E4F508F509C3E50994C8E508940056
:1008B00040020117E4FAFB0BBB00010AEB64C84AD3
:0C08C00070F50509E50970DF050880DB14
:030000000208CC27
:0C08CC00787FE4F6D8FD75810902080071
:00000001FF
